{
  "_format": "hh-sol-artifact-1",
  "contractName": "CustomDex",
  "sourceName": "contracts/CustomEx.sol",
  "abi": [
    {
      "inputs": [],
      "stateMutability": "nonpayable",
      "type": "constructor"
    },
    {
      "inputs": [],
      "name": "_historyIndex",
      "outputs": [
        {
          "internalType": "uint256",
          "name": "",
          "type": "uint256"
        }
      ],
      "stateMutability": "view",
      "type": "function"
    },
    {
      "inputs": [],
      "name": "getAllHistory",
      "outputs": [
        {
          "components": [
            {
              "internalType": "uint256",
              "name": "historyId",
              "type": "uint256"
            },
            {
              "internalType": "string",
              "name": "tokenA",
              "type": "string"
            },
            {
              "internalType": "string",
              "name": "tokenB",
              "type": "string"
            },
            {
              "internalType": "uint256",
              "name": "inputValue",
              "type": "uint256"
            },
            {
              "internalType": "uint256",
              "name": "outputValue",
              "type": "uint256"
            },
            {
              "internalType": "address",
              "name": "userAddress",
              "type": "address"
            }
          ],
          "internalType": "struct CustomDex.History[]",
          "name": "",
          "type": "tuple[]"
        }
      ],
      "stateMutability": "view",
      "type": "function"
    },
    {
      "inputs": [
        {
          "internalType": "string",
          "name": "tokenName",
          "type": "string"
        },
        {
          "internalType": "address",
          "name": "_address",
          "type": "address"
        }
      ],
      "name": "getBalance",
      "outputs": [
        {
          "internalType": "uint256",
          "name": "",
          "type": "uint256"
        }
      ],
      "stateMutability": "view",
      "type": "function"
    },
    {
      "inputs": [],
      "name": "getEthBalance",
      "outputs": [
        {
          "internalType": "uint256",
          "name": "",
          "type": "uint256"
        }
      ],
      "stateMutability": "view",
      "type": "function"
    },
    {
      "inputs": [
        {
          "internalType": "string",
          "name": "tokenName",
          "type": "string"
        }
      ],
      "name": "getName",
      "outputs": [
        {
          "internalType": "string",
          "name": "",
          "type": "string"
        }
      ],
      "stateMutability": "view",
      "type": "function"
    },
    {
      "inputs": [
        {
          "internalType": "string",
          "name": "tokenName",
          "type": "string"
        }
      ],
      "name": "getTokenAddress",
      "outputs": [
        {
          "internalType": "address",
          "name": "",
          "type": "address"
        }
      ],
      "stateMutability": "view",
      "type": "function"
    },
    {
      "inputs": [
        {
          "internalType": "string",
          "name": "tokenName",
          "type": "string"
        }
      ],
      "name": "getTotalSupply",
      "outputs": [
        {
          "internalType": "uint256",
          "name": "",
          "type": "uint256"
        }
      ],
      "stateMutability": "view",
      "type": "function"
    },
    {
      "inputs": [
        {
          "internalType": "string",
          "name": "tokenName",
          "type": "string"
        }
      ],
      "name": "swapEthToToken",
      "outputs": [
        {
          "internalType": "uint256",
          "name": "",
          "type": "uint256"
        }
      ],
      "stateMutability": "payable",
      "type": "function"
    },
    {
      "inputs": [
        {
          "internalType": "string",
          "name": "tokenName",
          "type": "string"
        },
        {
          "internalType": "uint256",
          "name": "_amount",
          "type": "uint256"
        }
      ],
      "name": "swapTokenToEth",
      "outputs": [
        {
          "internalType": "uint256",
          "name": "",
          "type": "uint256"
        }
      ],
      "stateMutability": "nonpayable",
      "type": "function"
    },
    {
      "inputs": [
        {
          "internalType": "string",
          "name": "srcTokenName",
          "type": "string"
        },
        {
          "internalType": "string",
          "name": "destTokenName",
          "type": "string"
        },
        {
          "internalType": "uint256",
          "name": "_amount",
          "type": "uint256"
        }
      ],
      "name": "swapTokenToToken",
      "outputs": [],
      "stateMutability": "nonpayable",
      "type": "function"
    },
    {
      "inputs": [
        {
          "internalType": "string",
          "name": "",
          "type": "string"
        }
      ],
      "name": "tokenInstanceMap",
      "outputs": [
        {
          "internalType": "contract ERC20",
          "name": "",
          "type": "address"
        }
      ],
      "stateMutability": "view",
      "type": "function"
    },
    {
      "inputs": [
        {
          "internalType": "uint256",
          "name": "",
          "type": "uint256"
        }
      ],
      "name": "tokens",
      "outputs": [
        {
          "internalType": "string",
          "name": "",
          "type": "string"
        }
      ],
      "stateMutability": "view",
      "type": "function"
    }
  ],
  "bytecode": "0x60806040526040518061010001604052806040518060400160405280600a81526020017f546574686572205553440000000000000000000000000000000000000000000081525081526020016040518060400160405280600381526020017f424e42000000000000000000000000000000000000000000000000000000000081525081526020016040518060400160405280600881526020017f55534420436f696e00000000000000000000000000000000000000000000000081525081526020016040518060400160405280600581526020017f737445544800000000000000000000000000000000000000000000000000000081525081526020016040518060400160405280600481526020017f54524f4e0000000000000000000000000000000000000000000000000000000081525081526020016040518060400160405280600b81526020017f4d4154494320546f6b656e00000000000000000000000000000000000000000081525081526020016040518060400160405280600981526020017f534849424120494e55000000000000000000000000000000000000000000000081525081526020016040518060400160405280600781526020017f556e6973776170000000000000000000000000000000000000000000000000008152508152506000906008620001f89291906200033d565b50655af3107a40006002553480156200021057600080fd5b5060005b600080549050811015620003365760008082815481106200023a576200023962000438565b5b90600052602060002001600083815481106200025b576200025a62000438565b5b9060005260206000200160405162000273906200039d565b6200028092919062000581565b604051809103906000f0801580156200029d573d6000803e3d6000fd5b50905080600160008481548110620002ba57620002b962000438565b5b90600052602060002001604051620002d3919062000656565b908152602001604051809103902060006101000a81548173ffffffffffffffffffffffffffffffffffffffff021916908373ffffffffffffffffffffffffffffffffffffffff1602179055505080806200032d90620006a8565b91505062000214565b50620009d3565b8280548282559060005260206000209081019282156200038a579160200282015b8281111562000389578251829081620003789190620008ec565b50916020019190600101906200035e565b5b509050620003999190620003ab565b5090565b611ab380620026c683390190565b5b80821115620003cf5760008181620003c59190620003d3565b50600101620003ac565b5090565b508054620003e19062000496565b6000825580601f10620003f5575062000416565b601f01602090049060005260206000209081019062000415919062000419565b5b50565b5b80821115620004345760008160009055506001016200041a565b5090565b7f4e487b7100000000000000000000000000000000000000000000000000000000600052603260045260246000fd5b7f4e487b7100000000000000000000000000000000000000000000000000000000600052602260045260246000fd5b60006002820490506001821680620004af57607f821691505b602082108103620004c557620004c462000467565b5b50919050565b600082825260208201905092915050565b60008190508160005260206000209050919050565b60008154620005008162000496565b6200050c8186620004cb565b945060018216600081146200052a5760018114620005415762000578565b60ff19831686528115156020028601935062000578565b6200054c85620004dc565b60005b8381101562000570578154818901526001820191506020810190506200054f565b808801955050505b50505092915050565b600060408201905081810360008301526200059d8185620004f1565b90508181036020830152620005b38184620004f1565b90509392505050565b600081905092915050565b60008154620005d68162000496565b620005e28186620005bc565b9450600182166000811462000600576001811462000616576200064d565b60ff19831686528115158202860193506200064d565b6200062185620004dc565b60005b83811015620006455781548189015260018201915060208101905062000624565b838801955050505b50505092915050565b6000620006648284620005c7565b915081905092915050565b7f4e487b7100000000000000000000000000000000000000000000000000000000600052601160045260246000fd5b6000819050919050565b6000620006b5826200069e565b91507fffffffffffffffffffffffffffffffffffffffffffffffffffffffffffffffff8203620006ea57620006e96200066f565b5b600182019050919050565b600081519050919050565b7f4e487b7100000000000000000000000000000000000000000000000000000000600052604160045260246000fd5b60006020601f8301049050919050565b600082821b905092915050565b6000600883026200077e7fffffffffffffffffffffffffffffffffffffffffffffffffffffffffffffffff826200073f565b6200078a86836200073f565b95508019841693508086168417925050509392505050565b6000819050919050565b6000620007cd620007c7620007c1846200069e565b620007a2565b6200069e565b9050919050565b6000819050919050565b620007e983620007ac565b62000801620007f882620007d4565b8484546200074c565b825550505050565b600090565b6200081862000809565b62000825818484620007de565b505050565b5b818110156200084d57620008416000826200080e565b6001810190506200082b565b5050565b601f8211156200089c576200086681620004dc565b62000871846200072f565b8101602085101562000881578190505b6200089962000890856200072f565b8301826200082a565b50505b505050565b600082821c905092915050565b6000620008c160001984600802620008a1565b1980831691505092915050565b6000620008dc8383620008ae565b9150826002028217905092915050565b620008f782620006f5565b67ffffffffffffffff81111562000913576200091262000700565b5b6200091f825462000496565b6200092c82828562000851565b600060209050601f8311600181146200096457600084156200094f578287015190505b6200095b8582620008ce565b865550620009cb565b601f1984166200097486620004dc565b60005b828110156200099e5784890151825560018201915060208501945060208101905062000977565b86831015620009be5784890151620009ba601f891682620008ae565b8355505b6001600288020188555050505b505050505050565b611ce380620009e36000396000f3fe6080604052600436106100a75760003560e01c806370ed0ada1161006457806370ed0ada146101e957806389f4b31714610214578063a93325ed14610251578063bf015aae1461028e578063c4091236146102b7578063db6f63ee146102f4576100a7565b806319b3c12d146100ac57806339c5891a146100d75780634f64b2be146101025780635463109e1461013f57806363fcf7c51461017c5780636932cf81146101ac575b600080fd5b3480156100b857600080fd5b506100c1610331565b6040516100ce9190610f05565b60405180910390f35b3480156100e357600080fd5b506100ec610337565b6040516100f99190611152565b60405180910390f35b34801561010e57600080fd5b50610129600480360381019061012491906111b4565b6105bc565b604051610136919061122b565b60405180910390f35b34801561014b57600080fd5b5061016660048036038101906101619190611382565b610668565b6040516101739190610f05565b60405180910390f35b61019660048036038101906101919190611382565b61071e565b6040516101a39190610f05565b60405180910390f35b3480156101b857600080fd5b506101d360048036038101906101ce9190611382565b61085f565b6040516101e0919061122b565b60405180910390f35b3480156101f557600080fd5b506101fe61091a565b60405161020b9190610f05565b60405180910390f35b34801561022057600080fd5b5061023b600480360381019061023691906113f7565b610922565b6040516102489190610f05565b60405180910390f35b34801561025d57600080fd5b5061027860048036038101906102739190611382565b6109e4565b60405161028591906114b2565b60405180910390f35b34801561029a57600080fd5b506102b560048036038101906102b091906114cd565b610a2d565b005b3480156102c357600080fd5b506102de60048036038101906102d99190611382565b610bca565b6040516102eb9190611567565b60405180910390f35b34801561030057600080fd5b5061031b60048036038101906103169190611582565b610c12565b6040516103289190610f05565b60405180910390f35b60035481565b6060600060035490506000808267ffffffffffffffff81111561035d5761035c611257565b5b60405190808252806020026020018201604052801561039657816020015b610383610ea0565b81526020019060019003908161037b5790505b50905060005b838110156105b25760006001826103b3919061160d565b90506000600460008381526020019081526020016000209050806040518060c0016040529081600082015481526020016001820180546103f290611670565b80601f016020809104026020016040519081016040528092919081815260200182805461041e90611670565b801561046b5780601f106104405761010080835404028352916020019161046b565b820191906000526020600020905b81548152906001019060200180831161044e57829003601f168201915b5050505050815260200160028201805461048490611670565b80601f01602080910402602001604051908101604052809291908181526020018280546104b090611670565b80156104fd5780601f106104d2576101008083540402835291602001916104fd565b820191906000526020600020905b8154815290600101906020018083116104e057829003601f168201915b5050505050815260200160038201548152602001600482015481526020016005820160009054906101000a900473ffffffffffffffffffffffffffffffffffffffff1673ffffffffffffffffffffffffffffffffffffffff1673ffffffffffffffffffffffffffffffffffffffff1681525050848681518110610583576105826116a1565b5b602002602001018190525060018561059b919061160d565b9450505080806105aa906116d0565b91505061039c565b5080935050505090565b600081815481106105cc57600080fd5b9060005260206000200160009150905080546105e790611670565b80601f016020809104026020016040519081016040528092919081815260200182805461061390611670565b80156106605780601f1061063557610100808354040283529160200191610660565b820191906000526020600020905b81548152906001019060200180831161064357829003601f168201915b505050505081565b600060018260405161067a9190611754565b908152602001604051809103902060009054906101000a900473ffffffffffffffffffffffffffffffffffffffff1673ffffffffffffffffffffffffffffffffffffffff166318160ddd6040518163ffffffff1660e01b8152600401602060405180830381865afa1580156106f3573d6000803e3d6000fd5b505050506040513d601f19601f820116820180604052508101906107179190611780565b9050919050565b6000803490506000670de0b6b3a76400006002548361073d91906117dc565b610747919061180d565b90506001846040516107599190611754565b908152602001604051809103902060009054906101000a900473ffffffffffffffffffffffffffffffffffffffff1673ffffffffffffffffffffffffffffffffffffffff1663a9059cbb33836040518363ffffffff1660e01b81526004016107c292919061184f565b6020604051808303816000875af11580156107e1573d6000803e3d6000fd5b505050506040513d601f19601f8201168201806040525081019061080591906118b0565b61080e57600080fd5b60006040518060400160405280600581526020017f4574686572000000000000000000000000000000000000000000000000000000815250905061085485828585610de0565b819350505050919050565b60606001826040516108719190611754565b908152602001604051809103902060009054906101000a900473ffffffffffffffffffffffffffffffffffffffff1673ffffffffffffffffffffffffffffffffffffffff166306fdde036040518163ffffffff1660e01b8152600401600060405180830381865afa1580156108ea573d6000803e3d6000fd5b505050506040513d6000823e3d601f19601f82011682018060405250810190610913919061194d565b9050919050565b600047905090565b60006001836040516109349190611754565b908152602001604051809103902060009054906101000a900473ffffffffffffffffffffffffffffffffffffffff1673ffffffffffffffffffffffffffffffffffffffff166370a08231836040518263ffffffff1660e01b815260040161099b9190611567565b602060405180830381865afa1580156109b8573d6000803e3d6000fd5b505050506040513d601f19601f820116820180604052508101906109dc9190611780565b905092915050565b6001818051602081018201805184825260208301602085012081835280955050505050506000915054906101000a900473ffffffffffffffffffffffffffffffffffffffff1681565b600183604051610a3d9190611754565b908152602001604051809103902060009054906101000a900473ffffffffffffffffffffffffffffffffffffffff1673ffffffffffffffffffffffffffffffffffffffff166323b872dd3330846040518463ffffffff1660e01b8152600401610aa893929190611996565b6020604051808303816000875af1158015610ac7573d6000803e3d6000fd5b505050506040513d601f19601f82011682018060405250810190610aeb91906118b0565b610af457600080fd5b600182604051610b049190611754565b908152602001604051809103902060009054906101000a900473ffffffffffffffffffffffffffffffffffffffff1673ffffffffffffffffffffffffffffffffffffffff1663a9059cbb33836040518363ffffffff1660e01b8152600401610b6d92919061184f565b6020604051808303816000875af1158015610b8c573d6000803e3d6000fd5b505050506040513d601f19601f82011682018060405250810190610bb091906118b0565b610bb957600080fd5b610bc583838384610de0565b505050565b6000600182604051610bdc9190611754565b908152602001604051809103902060009054906101000a900473ffffffffffffffffffffffffffffffffffffffff169050919050565b600080670de0b6b3a764000083610c2991906117dc565b9050600060025482610c3b919061180d565b905080471015610c80576040517f08c379a0000000000000000000000000000000000000000000000000000000008152600401610c7790611a19565b60405180910390fd5b3373ffffffffffffffffffffffffffffffffffffffff166108fc829081150290604051600060405180830381858888f19350505050158015610cc6573d6000803e3d6000fd5b50600185604051610cd79190611754565b908152602001604051809103902060009054906101000a900473ffffffffffffffffffffffffffffffffffffffff1673ffffffffffffffffffffffffffffffffffffffff166323b872dd3330876040518463ffffffff1660e01b8152600401610d4293929190611996565b6020604051808303816000875af1158015610d61573d6000803e3d6000fd5b505050506040513d601f19601f82011682018060405250810190610d8591906118b0565b610d8e57600080fd5b60006040518060400160405280600581526020017f45746865720000000000000000000000000000000000000000000000000000008152509050610dd486828585610de0565b81935050505092915050565b60036000815480929190610df3906116d0565b9190505550600060035490506000600460008381526020019081526020016000209050818160000181905550338160050160006101000a81548173ffffffffffffffffffffffffffffffffffffffff021916908373ffffffffffffffffffffffffffffffffffffffff16021790555085816001019081610e739190611bdb565b5084816002019081610e859190611bdb565b50838160030181905550828160040181905550505050505050565b6040518060c001604052806000815260200160608152602001606081526020016000815260200160008152602001600073ffffffffffffffffffffffffffffffffffffffff1681525090565b6000819050919050565b610eff81610eec565b82525050565b6000602082019050610f1a6000830184610ef6565b92915050565b600081519050919050565b600082825260208201905092915050565b6000819050602082019050919050565b610f5581610eec565b82525050565b600081519050919050565b600082825260208201905092915050565b60005b83811015610f95578082015181840152602081019050610f7a565b60008484015250505050565b6000601f19601f8301169050919050565b6000610fbd82610f5b565b610fc78185610f66565b9350610fd7818560208601610f77565b610fe081610fa1565b840191505092915050565b600073ffffffffffffffffffffffffffffffffffffffff82169050919050565b600061101682610feb565b9050919050565b6110268161100b565b82525050565b600060c0830160008301516110446000860182610f4c565b506020830151848203602086015261105c8282610fb2565b915050604083015184820360408601526110768282610fb2565b915050606083015161108b6060860182610f4c565b50608083015161109e6080860182610f4c565b5060a08301516110b160a086018261101d565b508091505092915050565b60006110c8838361102c565b905092915050565b6000602082019050919050565b60006110e882610f20565b6110f28185610f2b565b93508360208202850161110485610f3c565b8060005b85811015611140578484038952815161112185826110bc565b945061112c836110d0565b925060208a01995050600181019050611108565b50829750879550505050505092915050565b6000602082019050818103600083015261116c81846110dd565b905092915050565b6000604051905090565b600080fd5b600080fd5b61119181610eec565b811461119c57600080fd5b50565b6000813590506111ae81611188565b92915050565b6000602082840312156111ca576111c961117e565b5b60006111d88482850161119f565b91505092915050565b600082825260208201905092915050565b60006111fd82610f5b565b61120781856111e1565b9350611217818560208601610f77565b61122081610fa1565b840191505092915050565b6000602082019050818103600083015261124581846111f2565b905092915050565b600080fd5b600080fd5b7f4e487b7100000000000000000000000000000000000000000000000000000000600052604160045260246000fd5b61128f82610fa1565b810181811067ffffffffffffffff821117156112ae576112ad611257565b5b80604052505050565b60006112c1611174565b90506112cd8282611286565b919050565b600067ffffffffffffffff8211156112ed576112ec611257565b5b6112f682610fa1565b9050602081019050919050565b82818337600083830152505050565b6000611325611320846112d2565b6112b7565b90508281526020810184848401111561134157611340611252565b5b61134c848285611303565b509392505050565b600082601f8301126113695761136861124d565b5b8135611379848260208601611312565b91505092915050565b6000602082840312156113985761139761117e565b5b600082013567ffffffffffffffff8111156113b6576113b5611183565b5b6113c284828501611354565b91505092915050565b6113d48161100b565b81146113df57600080fd5b50565b6000813590506113f1816113cb565b92915050565b6000806040838503121561140e5761140d61117e565b5b600083013567ffffffffffffffff81111561142c5761142b611183565b5b61143885828601611354565b9250506020611449858286016113e2565b9150509250929050565b6000819050919050565b600061147861147361146e84610feb565b611453565b610feb565b9050919050565b600061148a8261145d565b9050919050565b600061149c8261147f565b9050919050565b6114ac81611491565b82525050565b60006020820190506114c760008301846114a3565b92915050565b6000806000606084860312156114e6576114e561117e565b5b600084013567ffffffffffffffff81111561150457611503611183565b5b61151086828701611354565b935050602084013567ffffffffffffffff81111561153157611530611183565b5b61153d86828701611354565b925050604061154e8682870161119f565b9150509250925092565b6115618161100b565b82525050565b600060208201905061157c6000830184611558565b92915050565b600080604083850312156115995761159861117e565b5b600083013567ffffffffffffffff8111156115b7576115b6611183565b5b6115c385828601611354565b92505060206115d48582860161119f565b9150509250929050565b7f4e487b7100000000000000000000000000000000000000000000000000000000600052601160045260246000fd5b600061161882610eec565b915061162383610eec565b925082820190508082111561163b5761163a6115de565b5b92915050565b7f4e487b7100000000000000000000000000000000000000000000000000000000600052602260045260246000fd5b6000600282049050600182168061168857607f821691505b60208210810361169b5761169a611641565b5b50919050565b7f4e487b7100000000000000000000000000000000000000000000000000000000600052603260045260246000fd5b60006116db82610eec565b91507fffffffffffffffffffffffffffffffffffffffffffffffffffffffffffffffff820361170d5761170c6115de565b5b600182019050919050565b600081905092915050565b600061172e82610f5b565b6117388185611718565b9350611748818560208601610f77565b80840191505092915050565b60006117608284611723565b915081905092915050565b60008151905061177a81611188565b92915050565b6000602082840312156117965761179561117e565b5b60006117a48482850161176b565b91505092915050565b7f4e487b7100000000000000000000000000000000000000000000000000000000600052601260045260246000fd5b60006117e782610eec565b91506117f283610eec565b925082611802576118016117ad565b5b828204905092915050565b600061181882610eec565b915061182383610eec565b925082820261183181610eec565b91508282048414831517611848576118476115de565b5b5092915050565b60006040820190506118646000830185611558565b6118716020830184610ef6565b9392505050565b60008115159050919050565b61188d81611878565b811461189857600080fd5b50565b6000815190506118aa81611884565b92915050565b6000602082840312156118c6576118c561117e565b5b60006118d48482850161189b565b91505092915050565b60006118f06118eb846112d2565b6112b7565b90508281526020810184848401111561190c5761190b611252565b5b611917848285610f77565b509392505050565b600082601f8301126119345761193361124d565b5b81516119448482602086016118dd565b91505092915050565b6000602082840312156119635761196261117e565b5b600082015167ffffffffffffffff81111561198157611980611183565b5b61198d8482850161191f565b91505092915050565b60006060820190506119ab6000830186611558565b6119b86020830185611558565b6119c56040830184610ef6565b949350505050565b7f4465782069732072756e6e696e67206c6f772062616c616e6365000000000000600082015250565b6000611a03601a836111e1565b9150611a0e826119cd565b602082019050919050565b60006020820190508181036000830152611a32816119f6565b9050919050565b60008190508160005260206000209050919050565b60006020601f8301049050919050565b600082821b905092915050565b600060088302611a9b7fffffffffffffffffffffffffffffffffffffffffffffffffffffffffffffffff82611a5e565b611aa58683611a5e565b95508019841693508086168417925050509392505050565b6000611ad8611ad3611ace84610eec565b611453565b610eec565b9050919050565b6000819050919050565b611af283611abd565b611b06611afe82611adf565b848454611a6b565b825550505050565b600090565b611b1b611b0e565b611b26818484611ae9565b505050565b5b81811015611b4a57611b3f600082611b13565b600181019050611b2c565b5050565b601f821115611b8f57611b6081611a39565b611b6984611a4e565b81016020851015611b78578190505b611b8c611b8485611a4e565b830182611b2b565b50505b505050565b600082821c905092915050565b6000611bb260001984600802611b94565b1980831691505092915050565b6000611bcb8383611ba1565b9150826002028217905092915050565b611be482610f5b565b67ffffffffffffffff811115611bfd57611bfc611257565b5b611c078254611670565b611c12828285611b4e565b600060209050601f831160018114611c455760008415611c33578287015190505b611c3d8582611bbf565b865550611ca5565b601f198416611c5386611a39565b60005b82811015611c7b57848901518255600182019150602085019450602081019050611c56565b86831015611c985784890151611c94601f891682611ba1565b8355505b6001600288020188555050505b50505050505056fea2646970667358221220da422494756a3c75112de997beaab732801d36eed5384ea7b080d6739ed9ef3c64736f6c6343000813003360806040523480156200001157600080fd5b5060405162001ab338038062001ab3833981810160405281019062000037919062000399565b818181600390816200004a919062000669565b5080600490816200005c919062000669565b5050506200007c336a084595161401484a0000006200008460201b60201c565b50506200086b565b600073ffffffffffffffffffffffffffffffffffffffff168273ffffffffffffffffffffffffffffffffffffffff1603620000f6576040517f08c379a0000000000000000000000000000000000000000000000000000000008152600401620000ed90620007b1565b60405180910390fd5b6200010a60008383620001fc60201b60201c565b80600260008282546200011e919062000802565b92505081905550806000808473ffffffffffffffffffffffffffffffffffffffff1673ffffffffffffffffffffffffffffffffffffffff168152602001908152602001600020600082825462000175919062000802565b925050819055508173ffffffffffffffffffffffffffffffffffffffff16600073ffffffffffffffffffffffffffffffffffffffff167fddf252ad1be2c89b69c2b068fc378daa952ba7f163c4a11628f55a4df523b3ef83604051620001dc91906200084e565b60405180910390a3620001f8600083836200020160201b60201c565b5050565b505050565b505050565b6000604051905090565b600080fd5b600080fd5b600080fd5b600080fd5b6000601f19601f8301169050919050565b7f4e487b7100000000000000000000000000000000000000000000000000000000600052604160045260246000fd5b6200026f8262000224565b810181811067ffffffffffffffff8211171562000291576200029062000235565b5b80604052505050565b6000620002a662000206565b9050620002b4828262000264565b919050565b600067ffffffffffffffff821115620002d757620002d662000235565b5b620002e28262000224565b9050602081019050919050565b60005b838110156200030f578082015181840152602081019050620002f2565b60008484015250505050565b6000620003326200032c84620002b9565b6200029a565b9050828152602081018484840111156200035157620003506200021f565b5b6200035e848285620002ef565b509392505050565b600082601f8301126200037e576200037d6200021a565b5b8151620003908482602086016200031b565b91505092915050565b60008060408385031215620003b357620003b262000210565b5b600083015167ffffffffffffffff811115620003d457620003d362000215565b5b620003e28582860162000366565b925050602083015167ffffffffffffffff81111562000406576200040562000215565b5b620004148582860162000366565b9150509250929050565b600081519050919050565b7f4e487b7100000000000000000000000000000000000000000000000000000000600052602260045260246000fd5b600060028204905060018216806200047157607f821691505b60208210810362000487576200048662000429565b5b50919050565b60008190508160005260206000209050919050565b60006020601f8301049050919050565b600082821b905092915050565b600060088302620004f17fffffffffffffffffffffffffffffffffffffffffffffffffffffffffffffffff82620004b2565b620004fd8683620004b2565b95508019841693508086168417925050509392505050565b6000819050919050565b6000819050919050565b60006200054a620005446200053e8462000515565b6200051f565b62000515565b9050919050565b6000819050919050565b620005668362000529565b6200057e620005758262000551565b848454620004bf565b825550505050565b600090565b6200059562000586565b620005a28184846200055b565b505050565b5b81811015620005ca57620005be6000826200058b565b600181019050620005a8565b5050565b601f8211156200061957620005e3816200048d565b620005ee84620004a2565b81016020851015620005fe578190505b620006166200060d85620004a2565b830182620005a7565b50505b505050565b600082821c905092915050565b60006200063e600019846008026200061e565b1980831691505092915050565b60006200065983836200062b565b9150826002028217905092915050565b62000674826200041e565b67ffffffffffffffff81111562000690576200068f62000235565b5b6200069c825462000458565b620006a9828285620005ce565b600060209050601f831160018114620006e15760008415620006cc578287015190505b620006d885826200064b565b86555062000748565b601f198416620006f1866200048d565b60005b828110156200071b57848901518255600182019150602085019450602081019050620006f4565b868310156200073b578489015162000737601f8916826200062b565b8355505b6001600288020188555050505b505050505050565b600082825260208201905092915050565b7f45524332303a206d696e7420746f20746865207a65726f206164647265737300600082015250565b600062000799601f8362000750565b9150620007a68262000761565b602082019050919050565b60006020820190508181036000830152620007cc816200078a565b9050919050565b7f4e487b7100000000000000000000000000000000000000000000000000000000600052601160045260246000fd5b60006200080f8262000515565b91506200081c8362000515565b9250828201905080821115620008375762000836620007d3565b5b92915050565b620008488162000515565b82525050565b60006020820190506200086560008301846200083d565b92915050565b611238806200087b6000396000f3fe608060405234801561001057600080fd5b50600436106100a95760003560e01c80633950935111610071578063395093511461016857806370a082311461019857806395d89b41146101c8578063a457c2d7146101e6578063a9059cbb14610216578063dd62ed3e14610246576100a9565b806306fdde03146100ae578063095ea7b3146100cc57806318160ddd146100fc57806323b872dd1461011a578063313ce5671461014a575b600080fd5b6100b6610276565b6040516100c39190610b15565b60405180910390f35b6100e660048036038101906100e19190610bd0565b610308565b6040516100f39190610c2b565b60405180910390f35b61010461032b565b6040516101119190610c55565b60405180910390f35b610134600480360381019061012f9190610c70565b610335565b6040516101419190610c2b565b60405180910390f35b610152610364565b60405161015f9190610cdf565b60405180910390f35b610182600480360381019061017d9190610bd0565b61036d565b60405161018f9190610c2b565b60405180910390f35b6101b260048036038101906101ad9190610cfa565b6103a4565b6040516101bf9190610c55565b60405180910390f35b6101d06103ec565b6040516101dd9190610b15565b60405180910390f35b61020060048036038101906101fb9190610bd0565b61047e565b60405161020d9190610c2b565b60405180910390f35b610230600480360381019061022b9190610bd0565b6104f5565b60405161023d9190610c2b565b60405180910390f35b610260600480360381019061025b9190610d27565b610518565b60405161026d9190610c55565b60405180910390f35b60606003805461028590610d96565b80601f01602080910402602001604051908101604052809291908181526020018280546102b190610d96565b80156102fe5780601f106102d3576101008083540402835291602001916102fe565b820191906000526020600020905b8154815290600101906020018083116102e157829003601f168201915b5050505050905090565b60008061031361059f565b90506103208185856105a7565b600191505092915050565b6000600254905090565b60008061034061059f565b905061034d858285610770565b6103588585856107fc565b60019150509392505050565b60006012905090565b60008061037861059f565b905061039981858561038a8589610518565b6103949190610df6565b6105a7565b600191505092915050565b60008060008373ffffffffffffffffffffffffffffffffffffffff1673ffffffffffffffffffffffffffffffffffffffff168152602001908152602001600020549050919050565b6060600480546103fb90610d96565b80601f016020809104026020016040519081016040528092919081815260200182805461042790610d96565b80156104745780601f1061044957610100808354040283529160200191610474565b820191906000526020600020905b81548152906001019060200180831161045757829003601f168201915b5050505050905090565b60008061048961059f565b905060006104978286610518565b9050838110156104dc576040517f08c379a00000000000000000000000000000000000000000000000000000000081526004016104d390610e9c565b60405180910390fd5b6104e982868684036105a7565b60019250505092915050565b60008061050061059f565b905061050d8185856107fc565b600191505092915050565b6000600160008473ffffffffffffffffffffffffffffffffffffffff1673ffffffffffffffffffffffffffffffffffffffff16815260200190815260200160002060008373ffffffffffffffffffffffffffffffffffffffff1673ffffffffffffffffffffffffffffffffffffffff16815260200190815260200160002054905092915050565b600033905090565b600073ffffffffffffffffffffffffffffffffffffffff168373ffffffffffffffffffffffffffffffffffffffff1603610616576040517f08c379a000000000000000000000000000000000000000000000000000000000815260040161060d90610f2e565b60405180910390fd5b600073ffffffffffffffffffffffffffffffffffffffff168273ffffffffffffffffffffffffffffffffffffffff1603610685576040517f08c379a000000000000000000000000000000000000000000000000000000000815260040161067c90610fc0565b60405180910390fd5b80600160008573ffffffffffffffffffffffffffffffffffffffff1673ffffffffffffffffffffffffffffffffffffffff16815260200190815260200160002060008473ffffffffffffffffffffffffffffffffffffffff1673ffffffffffffffffffffffffffffffffffffffff168152602001908152602001600020819055508173ffffffffffffffffffffffffffffffffffffffff168373ffffffffffffffffffffffffffffffffffffffff167f8c5be1e5ebec7d5bd14f71427d1e84f3dd0314c0f7b2291e5b200ac8c7c3b925836040516107639190610c55565b60405180910390a3505050565b600061077c8484610518565b90507fffffffffffffffffffffffffffffffffffffffffffffffffffffffffffffffff81146107f657818110156107e8576040517f08c379a00000000000000000000000000000000000000000000000000000000081526004016107df9061102c565b60405180910390fd5b6107f584848484036105a7565b5b50505050565b600073ffffffffffffffffffffffffffffffffffffffff168373ffffffffffffffffffffffffffffffffffffffff160361086b576040517f08c379a0000000000000000000000000000000000000000000000000000000008152600401610862906110be565b60405180910390fd5b600073ffffffffffffffffffffffffffffffffffffffff168273ffffffffffffffffffffffffffffffffffffffff16036108da576040517f08c379a00000000000000000000000000000000000000000000000000000000081526004016108d190611150565b60405180910390fd5b6108e5838383610a7b565b60008060008573ffffffffffffffffffffffffffffffffffffffff1673ffffffffffffffffffffffffffffffffffffffff1681526020019081526020016000205490508181101561096b576040517f08c379a0000000000000000000000000000000000000000000000000000000008152600401610962906111e2565b60405180910390fd5b8181036000808673ffffffffffffffffffffffffffffffffffffffff1673ffffffffffffffffffffffffffffffffffffffff16815260200190815260200160002081905550816000808573ffffffffffffffffffffffffffffffffffffffff1673ffffffffffffffffffffffffffffffffffffffff16815260200190815260200160002060008282546109fe9190610df6565b925050819055508273ffffffffffffffffffffffffffffffffffffffff168473ffffffffffffffffffffffffffffffffffffffff167fddf252ad1be2c89b69c2b068fc378daa952ba7f163c4a11628f55a4df523b3ef84604051610a629190610c55565b60405180910390a3610a75848484610a80565b50505050565b505050565b505050565b600081519050919050565b600082825260208201905092915050565b60005b83811015610abf578082015181840152602081019050610aa4565b60008484015250505050565b6000601f19601f8301169050919050565b6000610ae782610a85565b610af18185610a90565b9350610b01818560208601610aa1565b610b0a81610acb565b840191505092915050565b60006020820190508181036000830152610b2f8184610adc565b905092915050565b600080fd5b600073ffffffffffffffffffffffffffffffffffffffff82169050919050565b6000610b6782610b3c565b9050919050565b610b7781610b5c565b8114610b8257600080fd5b50565b600081359050610b9481610b6e565b92915050565b6000819050919050565b610bad81610b9a565b8114610bb857600080fd5b50565b600081359050610bca81610ba4565b92915050565b60008060408385031215610be757610be6610b37565b5b6000610bf585828601610b85565b9250506020610c0685828601610bbb565b9150509250929050565b60008115159050919050565b610c2581610c10565b82525050565b6000602082019050610c406000830184610c1c565b92915050565b610c4f81610b9a565b82525050565b6000602082019050610c6a6000830184610c46565b92915050565b600080600060608486031215610c8957610c88610b37565b5b6000610c9786828701610b85565b9350506020610ca886828701610b85565b9250506040610cb986828701610bbb565b9150509250925092565b600060ff82169050919050565b610cd981610cc3565b82525050565b6000602082019050610cf46000830184610cd0565b92915050565b600060208284031215610d1057610d0f610b37565b5b6000610d1e84828501610b85565b91505092915050565b60008060408385031215610d3e57610d3d610b37565b5b6000610d4c85828601610b85565b9250506020610d5d85828601610b85565b9150509250929050565b7f4e487b7100000000000000000000000000000000000000000000000000000000600052602260045260246000fd5b60006002820490506001821680610dae57607f821691505b602082108103610dc157610dc0610d67565b5b50919050565b7f4e487b7100000000000000000000000000000000000000000000000000000000600052601160045260246000fd5b6000610e0182610b9a565b9150610e0c83610b9a565b9250828201905080821115610e2457610e23610dc7565b5b92915050565b7f45524332303a2064656372656173656420616c6c6f77616e63652062656c6f7760008201527f207a65726f000000000000000000000000000000000000000000000000000000602082015250565b6000610e86602583610a90565b9150610e9182610e2a565b604082019050919050565b60006020820190508181036000830152610eb581610e79565b9050919050565b7f45524332303a20617070726f76652066726f6d20746865207a65726f2061646460008201527f7265737300000000000000000000000000000000000000000000000000000000602082015250565b6000610f18602483610a90565b9150610f2382610ebc565b604082019050919050565b60006020820190508181036000830152610f4781610f0b565b9050919050565b7f45524332303a20617070726f766520746f20746865207a65726f20616464726560008201527f7373000000000000000000000000000000000000000000000000000000000000602082015250565b6000610faa602283610a90565b9150610fb582610f4e565b604082019050919050565b60006020820190508181036000830152610fd981610f9d565b9050919050565b7f45524332303a20696e73756666696369656e7420616c6c6f77616e6365000000600082015250565b6000611016601d83610a90565b915061102182610fe0565b602082019050919050565b6000602082019050818103600083015261104581611009565b9050919050565b7f45524332303a207472616e736665722066726f6d20746865207a65726f20616460008201527f6472657373000000000000000000000000000000000000000000000000000000602082015250565b60006110a8602583610a90565b91506110b38261104c565b604082019050919050565b600060208201905081810360008301526110d78161109b565b9050919050565b7f45524332303a207472616e7366657220746f20746865207a65726f206164647260008201527f6573730000000000000000000000000000000000000000000000000000000000602082015250565b600061113a602383610a90565b9150611145826110de565b604082019050919050565b600060208201905081810360008301526111698161112d565b9050919050565b7f45524332303a207472616e7366657220616d6f756e742065786365656473206260008201527f616c616e63650000000000000000000000000000000000000000000000000000602082015250565b60006111cc602683610a90565b91506111d782611170565b604082019050919050565b600060208201905081810360008301526111fb816111bf565b905091905056fea26469706673582212207158287489837062ea26c9a5a6047cf8d0f31ace4a070bad70a978450c9a6a1c64736f6c63430008130033",
  "linkReferences": {},
  "deployedLinkReferences": {}
}